{
  "contractName": "RationVitranKendra",
  "abi": [
    {
      "inputs": [],
      "stateMutability": "nonpayable",
      "type": "constructor"
    },
    {
      "anonymous": false,
      "inputs": [
        {
          "indexed": false,
          "internalType": "address",
          "name": "adsOfUser",
          "type": "address"
        },
        {
          "indexed": false,
          "internalType": "bool",
          "name": "isActive",
          "type": "bool"
        }
      ],
      "name": "registerUserEvent",
      "type": "event"
    },
    {
      "anonymous": false,
      "inputs": [
        {
          "indexed": false,
          "internalType": "uint256",
          "name": "pulsesPrice",
          "type": "uint256"
        },
        {
          "indexed": false,
          "internalType": "uint256",
          "name": "ricePrice",
          "type": "uint256"
        },
        {
          "indexed": false,
          "internalType": "uint256",
          "name": "wheatPrice",
          "type": "uint256"
        },
        {
          "indexed": false,
          "internalType": "string",
          "name": "msg",
          "type": "string"
        }
      ],
      "name": "updateItemsPriceEvent",
      "type": "event"
    },
    {
      "anonymous": false,
      "inputs": [
        {
          "indexed": false,
          "internalType": "address",
          "name": "adsOfUser",
          "type": "address"
        },
        {
          "indexed": false,
          "internalType": "bool",
          "name": "isActive",
          "type": "bool"
        }
      ],
      "name": "userRemovingEvent",
      "type": "event"
    },
    {
      "anonymous": false,
      "inputs": [
        {
          "indexed": false,
          "internalType": "address",
          "name": "adsOfUser",
          "type": "address"
        },
        {
          "indexed": false,
          "internalType": "bool",
          "name": "hasTaken",
          "type": "bool"
        },
        {
          "indexed": false,
          "internalType": "string",
          "name": "item",
          "type": "string"
        }
      ],
      "name": "withdrawEvent",
      "type": "event"
    },
    {
      "inputs": [
        {
          "internalType": "address",
          "name": "",
          "type": "address"
        }
      ],
      "name": "charityMap",
      "outputs": [
        {
          "internalType": "string",
          "name": "charityName",
          "type": "string"
        },
        {
          "internalType": "address",
          "name": "charityAddress",
          "type": "address"
        },
        {
          "internalType": "uint8",
          "name": "charityShare",
          "type": "uint8"
        },
        {
          "internalType": "bool",
          "name": "isActive",
          "type": "bool"
        },
        {
          "internalType": "uint256",
          "name": "time",
          "type": "uint256"
        },
        {
          "internalType": "uint256",
          "name": "nextDueTime",
          "type": "uint256"
        }
      ],
      "stateMutability": "view",
      "type": "function",
      "constant": true
    },
    {
      "inputs": [],
      "name": "ip",
      "outputs": [
        {
          "internalType": "uint256",
          "name": "pulsesPrice",
          "type": "uint256"
        },
        {
          "internalType": "uint256",
          "name": "ricePrice",
          "type": "uint256"
        },
        {
          "internalType": "uint256",
          "name": "wheatPrice",
          "type": "uint256"
        }
      ],
      "stateMutability": "view",
      "type": "function",
      "constant": true
    },
    {
      "inputs": [],
      "name": "nextDueTimePeriod",
      "outputs": [
        {
          "internalType": "uint256",
          "name": "",
          "type": "uint256"
        }
      ],
      "stateMutability": "view",
      "type": "function",
      "constant": true
    },
    {
      "inputs": [],
      "name": "owner",
      "outputs": [
        {
          "internalType": "address",
          "name": "",
          "type": "address"
        }
      ],
      "stateMutability": "view",
      "type": "function",
      "constant": true
    },
    {
      "inputs": [],
      "name": "pulsesDistribute",
      "outputs": [
        {
          "internalType": "uint8",
          "name": "",
          "type": "uint8"
        }
      ],
      "stateMutability": "view",
      "type": "function",
      "constant": true
    },
    {
      "inputs": [],
      "name": "riceDistribute",
      "outputs": [
        {
          "internalType": "uint8",
          "name": "",
          "type": "uint8"
        }
      ],
      "stateMutability": "view",
      "type": "function",
      "constant": true
    },
    {
      "inputs": [],
      "name": "totalPulses",
      "outputs": [
        {
          "internalType": "uint256",
          "name": "",
          "type": "uint256"
        }
      ],
      "stateMutability": "view",
      "type": "function",
      "constant": true
    },
    {
      "inputs": [],
      "name": "totalRice",
      "outputs": [
        {
          "internalType": "uint256",
          "name": "",
          "type": "uint256"
        }
      ],
      "stateMutability": "view",
      "type": "function",
      "constant": true
    },
    {
      "inputs": [],
      "name": "totalWheat",
      "outputs": [
        {
          "internalType": "uint256",
          "name": "",
          "type": "uint256"
        }
      ],
      "stateMutability": "view",
      "type": "function",
      "constant": true
    },
    {
      "inputs": [
        {
          "internalType": "address",
          "name": "",
          "type": "address"
        }
      ],
      "name": "userMap",
      "outputs": [
        {
          "internalType": "address",
          "name": "userAddress",
          "type": "address"
        },
        {
          "internalType": "bool",
          "name": "isActive",
          "type": "bool"
        },
        {
          "components": [
            {
              "internalType": "uint256",
              "name": "time",
              "type": "uint256"
            },
            {
              "internalType": "uint256",
              "name": "nextDue",
              "type": "uint256"
            },
            {
              "internalType": "uint256",
              "name": "userPulses",
              "type": "uint256"
            }
          ],
          "internalType": "struct RationVitranKendra.PulsesStr",
          "name": "pulsesInfo",
          "type": "tuple"
        },
        {
          "components": [
            {
              "internalType": "uint256",
              "name": "time",
              "type": "uint256"
            },
            {
              "internalType": "uint256",
              "name": "nextDue",
              "type": "uint256"
            },
            {
              "internalType": "uint256",
              "name": "userRice",
              "type": "uint256"
            }
          ],
          "internalType": "struct RationVitranKendra.RiceStr",
          "name": "riceInfo",
          "type": "tuple"
        },
        {
          "components": [
            {
              "internalType": "uint256",
              "name": "time",
              "type": "uint256"
            },
            {
              "internalType": "uint256",
              "name": "nextDue",
              "type": "uint256"
            },
            {
              "internalType": "uint256",
              "name": "userWheat",
              "type": "uint256"
            }
          ],
          "internalType": "struct RationVitranKendra.WheatStr",
          "name": "wheatInfo",
          "type": "tuple"
        }
      ],
      "stateMutability": "view",
      "type": "function",
      "constant": true
    },
    {
      "inputs": [],
      "name": "wheatDistribute",
      "outputs": [
        {
          "internalType": "uint8",
          "name": "",
          "type": "uint8"
        }
      ],
      "stateMutability": "view",
      "type": "function",
      "constant": true
    },
    {
      "inputs": [
        {
          "internalType": "address",
          "name": "adsOfUser",
          "type": "address"
        }
      ],
      "name": "registerUser",
      "outputs": [],
      "stateMutability": "nonpayable",
      "type": "function"
    },
    {
      "inputs": [
        {
          "internalType": "enum RationVitranKendra.rawItems",
          "name": "item",
          "type": "uint8"
        }
      ],
      "name": "withDrawRation",
      "outputs": [],
      "stateMutability": "payable",
      "type": "function",
      "payable": true
    },
    {
      "inputs": [
        {
          "internalType": "address",
          "name": "toRemoveUser",
          "type": "address"
        }
      ],
      "name": "removeUser",
      "outputs": [],
      "stateMutability": "nonpayable",
      "type": "function"
    },
    {
      "inputs": [
        {
          "internalType": "string",
          "name": "_charityName",
          "type": "string"
        },
        {
          "internalType": "address",
          "name": "_charityAddress",
          "type": "address"
        },
        {
          "internalType": "uint8",
          "name": "_charityShare",
          "type": "uint8"
        }
      ],
      "name": "charityRegistration",
      "outputs": [],
      "stateMutability": "nonpayable",
      "type": "function"
    },
    {
      "inputs": [
        {
          "internalType": "address",
          "name": "toRemoveCharity",
          "type": "address"
        }
      ],
      "name": "removeCharity",
      "outputs": [],
      "stateMutability": "nonpayable",
      "type": "function"
    },
    {
      "inputs": [],
      "name": "withDrawFund",
      "outputs": [],
      "stateMutability": "nonpayable",
      "type": "function"
    },
    {
      "inputs": [
        {
          "internalType": "uint256",
          "name": "_pulses",
          "type": "uint256"
        },
        {
          "internalType": "uint256",
          "name": "_rice",
          "type": "uint256"
        },
        {
          "internalType": "uint256",
          "name": "_wheat",
          "type": "uint256"
        }
      ],
      "name": "refilling",
      "outputs": [],
      "stateMutability": "nonpayable",
      "type": "function"
    },
    {
      "inputs": [
        {
          "internalType": "uint8",
          "name": "_pulsesDistribute",
          "type": "uint8"
        },
        {
          "internalType": "uint8",
          "name": "_riceDistribute",
          "type": "uint8"
        },
        {
          "internalType": "uint8",
          "name": "_wheatDistribute",
          "type": "uint8"
        }
      ],
      "name": "updateItemsQuantity",
      "outputs": [],
      "stateMutability": "nonpayable",
      "type": "function"
    },
    {
      "inputs": [],
      "name": "getContractBal",
      "outputs": [
        {
          "internalType": "uint256",
          "name": "",
          "type": "uint256"
        }
      ],
      "stateMutability": "view",
      "type": "function",
      "constant": true
    },
    {
      "inputs": [
        {
          "internalType": "uint256",
          "name": "newtime",
          "type": "uint256"
        }
      ],
      "name": "changeDistributionTime",
      "outputs": [],
      "stateMutability": "nonpayable",
      "type": "function"
    },
    {
      "inputs": [
        {
          "internalType": "uint256",
          "name": "_pulsesPrice",
          "type": "uint256"
        },
        {
          "internalType": "uint256",
          "name": "_ricePrice",
          "type": "uint256"
        },
        {
          "internalType": "uint256",
          "name": "_wheatPrice",
          "type": "uint256"
        }
      ],
      "name": "updateItemsPrice",
      "outputs": [],
      "stateMutability": "nonpayable",
      "type": "function"
    }
  ],
  "bytecode": "0x60806040526127106001556127106002556127106003556005600460006101000a81548160ff021916908360ff1602179055506005600460016101000a81548160ff021916908360ff1602179055506005600460026101000a81548160ff021916908360ff16021790555060146005553480156200007c57600080fd5b50336000806101000a81548173ffffffffffffffffffffffffffffffffffffffff021916908373ffffffffffffffffffffffffffffffffffffffff160217905550620000e26512309ce54000650da475abf0006509184e72a000620000e860201b60201c565b6200026f565b3373ffffffffffffffffffffffffffffffffffffffff1660008054906101000a900473ffffffffffffffffffffffffffffffffffffffff1673ffffffffffffffffffffffffffffffffffffffff16146200014157600080fd5b8260086000018190555081600860010181905550806008600201819055507fe57f40133fffbe403f4a257b5f6e9a99836c507712808483bfcfe95056ac82b983838360405162000194939291906200021d565b60405180910390a1505050565b6000819050919050565b620001b681620001a1565b82525050565b600082825260208201905092915050565b7f6974656d73207072696365206973207570646174656400000000000000000000600082015250565b600062000205601683620001bc565b91506200021282620001cd565b602082019050919050565b6000608082019050620002346000830186620001ab565b620002436020830185620001ab565b620002526040830184620001ab565b81810360608301526200026581620001f6565b9050949350505050565b6133e1806200027f6000396000f3fe6080604052600436106101355760003560e01c8063884e7e97116100ab578063abefe5911161006f578063abefe591146103ea578063d023420d14610413578063d87e415314610440578063db443ff414610469578063e4f784af14610494578063eb105d6c146104bd57610135565b8063884e7e97146103195780638da5cb5b14610342578063985751881461036d5780639feda17214610396578063a5a217cd146103c157610135565b8063303d1257116100fd578063303d12571461021657806352f5446a1461023f578063566ddf791461026a5780635d9fa6fc146102ac578063671473a5146102d75780636fc00fac146102ee57610135565b806311d697a71461013a57806314d9f1791461015657806320fb47b5146101815780632199d5cd146101ac5780632bcc23f8146101d5575b600080fd5b610154600480360381019061014f9190611f07565b6104e8565b005b34801561016257600080fd5b5061016b6107a5565b6040516101789190611f50565b60405180910390f35b34801561018d57600080fd5b506101966107b8565b6040516101a39190611f50565b60405180910390f35b3480156101b857600080fd5b506101d360048036038101906101ce9190611fc9565b6107cb565b005b3480156101e157600080fd5b506101fc60048036038101906101f79190611fc9565b610ac9565b60405161020d9594939291906120ff565b60405180910390f35b34801561022257600080fd5b5061023d60048036038101906102389190612180565b610ba4565b005b34801561024b57600080fd5b50610254610c52565b60405161026191906121e2565b60405180910390f35b34801561027657600080fd5b50610291600480360381019061028c9190611fc9565b610c58565b6040516102a396959493929190612296565b60405180910390f35b3480156102b857600080fd5b506102c1610d56565b6040516102ce91906121e2565b60405180910390f35b3480156102e357600080fd5b506102ec610d5e565b005b3480156102fa57600080fd5b5061030361100e565b6040516103109190611f50565b60405180910390f35b34801561032557600080fd5b50610340600480360381019061033b9190612433565b611021565b005b34801561034e57600080fd5b50610357611330565b60405161036491906124a2565b60405180910390f35b34801561037957600080fd5b50610394600480360381019061038f9190611fc9565b611354565b005b3480156103a257600080fd5b506103ab6114da565b6040516103b891906121e2565b60405180910390f35b3480156103cd57600080fd5b506103e860048036038101906103e391906124e9565b6114e0565b005b3480156103f657600080fd5b50610411600480360381019061040c9190611fc9565b611588565b005b34801561041f57600080fd5b506104286116d4565b6040516104379392919061253c565b60405180910390f35b34801561044c57600080fd5b50610467600480360381019061046291906124e9565b6116ec565b005b34801561047557600080fd5b5061047e6117a2565b60405161048b91906121e2565b60405180910390f35b3480156104a057600080fd5b506104bb60048036038101906104b69190612573565b6117a8565b005b3480156104c957600080fd5b506104d261180a565b6040516104df91906121e2565b60405180910390f35b600660003373ffffffffffffffffffffffffffffffffffffffff1673ffffffffffffffffffffffffffffffffffffffff16815260200190815260200160002060000160149054906101000a900460ff16610577576040517f08c379a000000000000000000000000000000000000000000000000000000000815260040161056e90612612565b60405180910390fd5b6000600281111561058b5761058a612632565b5b81600281111561059e5761059d612632565b5b036106315760086000015434116105ea576040517f08c379a00000000000000000000000000000000000000000000000000000000081526004016105e1906126d3565b60405180910390fd5b6105f2611810565b7fb72490c1395f561eb1eea7cb8c1de34720a59e2fdf8da47cd1ca5c32e2c2ffc133600160405161062492919061273f565b60405180910390a16107a2565b6001600281111561064557610644612632565b5b81600281111561065857610657612632565b5b036106eb5760086001015434116106a4576040517f08c379a000000000000000000000000000000000000000000000000000000000815260040161069b906127ed565b60405180910390fd5b6106ac611a19565b7fb72490c1395f561eb1eea7cb8c1de34720a59e2fdf8da47cd1ca5c32e2c2ffc13360016040516106de929190612859565b60405180910390a16107a1565b6002808111156106fe576106fd612632565b5b81600281111561071157610710612632565b5b036107a057600860000154341161075d576040517f08c379a000000000000000000000000000000000000000000000000000000000815260040161075490612907565b60405180910390fd5b610765611c22565b7fb72490c1395f561eb1eea7cb8c1de34720a59e2fdf8da47cd1ca5c32e2c2ffc1336001604051610797929190612973565b60405180910390a15b5b5b50565b600460019054906101000a900460ff1681565b600460029054906101000a900460ff1681565b3373ffffffffffffffffffffffffffffffffffffffff1660008054906101000a900473ffffffffffffffffffffffffffffffffffffffff1673ffffffffffffffffffffffffffffffffffffffff161461082357600080fd5b60001515600660008373ffffffffffffffffffffffffffffffffffffffff1673ffffffffffffffffffffffffffffffffffffffff16815260200190815260200160002060000160149054906101000a900460ff161515146108b9576040517f08c379a00000000000000000000000000000000000000000000000000000000081526004016108b090612a21565b60405180910390fd5b60006040518060600160405280600081526020016000815260200160008152509050600060405180606001604052806000815260200160008152602001600081525090506000604051806060016040528060008152602001600081526020016000815250905060006040518060a001604052808673ffffffffffffffffffffffffffffffffffffffff16815260200160011515815260200185815260200184815260200183815250905080600660008773ffffffffffffffffffffffffffffffffffffffff1673ffffffffffffffffffffffffffffffffffffffff16815260200190815260200160002060008201518160000160006101000a81548173ffffffffffffffffffffffffffffffffffffffff021916908373ffffffffffffffffffffffffffffffffffffffff16021790555060208201518160000160146101000a81548160ff0219169083151502179055506040820151816001016000820151816000015560208201518160010155604082015181600201555050606082015181600401600082015181600001556020820151816001015560408201518160020155505060808201518160070160008201518160000155602082015181600101556040820151816002015550509050507fb931130ba5c92ae531ee0fd043c48e7b5e7ca215d4ea39ba44a9a82718709680856001604051610aba929190612a41565b60405180910390a15050505050565b60066020528060005260406000206000915090508060000160009054906101000a900473ffffffffffffffffffffffffffffffffffffffff16908060000160149054906101000a900460ff16908060010160405180606001604052908160008201548152602001600182015481526020016002820154815250509080600401604051806060016040529081600082015481526020016001820154815260200160028201548152505090806007016040518060600160405290816000820154815260200160018201548152602001600282015481525050905085565b3373ffffffffffffffffffffffffffffffffffffffff1660008054906101000a900473ffffffffffffffffffffffffffffffffffffffff1673ffffffffffffffffffffffffffffffffffffffff1614610bfc57600080fd5b82600460006101000a81548160ff021916908360ff16021790555081600460016101000a81548160ff021916908360ff16021790555080600460026101000a81548160ff021916908360ff160217905550505050565b60035481565b6007602052806000526040600020600091509050806000018054610c7b90612a99565b80601f0160208091040260200160405190810160405280929190818152602001828054610ca790612a99565b8015610cf45780601f10610cc957610100808354040283529160200191610cf4565b820191906000526020600020905b815481529060010190602001808311610cd757829003601f168201915b5050505050908060010160009054906101000a900473ffffffffffffffffffffffffffffffffffffffff16908060010160149054906101000a900460ff16908060010160159054906101000a900460ff16908060020154908060030154905086565b600047905090565b60011515600760003373ffffffffffffffffffffffffffffffffffffffff1673ffffffffffffffffffffffffffffffffffffffff16815260200190815260200160002060010160159054906101000a900460ff16151514610df4576040517f08c379a0000000000000000000000000000000000000000000000000000000008152600401610deb90612b3c565b60405180910390fd5b600760003373ffffffffffffffffffffffffffffffffffffffff1673ffffffffffffffffffffffffffffffffffffffff168152602001908152602001600020600301544211610e78576040517f08c379a0000000000000000000000000000000000000000000000000000000008152600401610e6f90612bce565b60405180910390fd5b60004711610ebb576040517f08c379a0000000000000000000000000000000000000000000000000000000008152600401610eb290612c60565b60405180910390fd5b60003390508073ffffffffffffffffffffffffffffffffffffffff166108fc6064600760003373ffffffffffffffffffffffffffffffffffffffff1673ffffffffffffffffffffffffffffffffffffffff16815260200190815260200160002060010160149054906101000a900460ff1660ff1647610f3a9190612caf565b610f449190612d38565b9081150290604051600060405180830381858888f19350505050158015610f6f573d6000803e3d6000fd5b5042600760003373ffffffffffffffffffffffffffffffffffffffff1673ffffffffffffffffffffffffffffffffffffffff1681526020019081526020016000206002018190555060055442610fc59190612d69565b600760003373ffffffffffffffffffffffffffffffffffffffff1673ffffffffffffffffffffffffffffffffffffffff1681526020019081526020016000206003018190555050565b600460009054906101000a900460ff1681565b3373ffffffffffffffffffffffffffffffffffffffff1660008054906101000a900473ffffffffffffffffffffffffffffffffffffffff1673ffffffffffffffffffffffffffffffffffffffff161461107957600080fd5b60001515600760008473ffffffffffffffffffffffffffffffffffffffff1673ffffffffffffffffffffffffffffffffffffffff16815260200190815260200160002060010160159054906101000a900460ff1615151461110f576040517f08c379a000000000000000000000000000000000000000000000000000000000815260040161110690612e31565b60405180910390fd5b82600760008473ffffffffffffffffffffffffffffffffffffffff1673ffffffffffffffffffffffffffffffffffffffff1681526020019081526020016000206000019080519060200190611165929190611e2b565b5081600760008473ffffffffffffffffffffffffffffffffffffffff1673ffffffffffffffffffffffffffffffffffffffff16815260200190815260200160002060010160006101000a81548173ffffffffffffffffffffffffffffffffffffffff021916908373ffffffffffffffffffffffffffffffffffffffff16021790555080600760008473ffffffffffffffffffffffffffffffffffffffff1673ffffffffffffffffffffffffffffffffffffffff16815260200190815260200160002060010160146101000a81548160ff021916908360ff1602179055506001600760008473ffffffffffffffffffffffffffffffffffffffff1673ffffffffffffffffffffffffffffffffffffffff16815260200190815260200160002060010160156101000a81548160ff02191690831515021790555042600760008473ffffffffffffffffffffffffffffffffffffffff1673ffffffffffffffffffffffffffffffffffffffff1681526020019081526020016000206002018190555042600760008473ffffffffffffffffffffffffffffffffffffffff1673ffffffffffffffffffffffffffffffffffffffff16815260200190815260200160002060030181905550505050565b60008054906101000a900473ffffffffffffffffffffffffffffffffffffffff1681565b3373ffffffffffffffffffffffffffffffffffffffff1660008054906101000a900473ffffffffffffffffffffffffffffffffffffffff1673ffffffffffffffffffffffffffffffffffffffff16146113ac57600080fd5b60011515600660008373ffffffffffffffffffffffffffffffffffffffff1673ffffffffffffffffffffffffffffffffffffffff16815260200190815260200160002060000160149054906101000a900460ff16151514611442576040517f08c379a000000000000000000000000000000000000000000000000000000000815260040161143990612ec3565b60405180910390fd5b6000600660008373ffffffffffffffffffffffffffffffffffffffff1673ffffffffffffffffffffffffffffffffffffffff16815260200190815260200160002060000160146101000a81548160ff0219169083151502179055507ff4e5abc56ec0b3251c9d322cd0a01420895002f6b6427e17a03e54b18104e5ee8160006040516114cf929190612a41565b60405180910390a150565b60025481565b3373ffffffffffffffffffffffffffffffffffffffff1660008054906101000a900473ffffffffffffffffffffffffffffffffffffffff1673ffffffffffffffffffffffffffffffffffffffff161461153857600080fd5b826001600082825461154a9190612d69565b9250508190555081600260008282546115639190612d69565b92505081905550806003600082825461157c9190612d69565b92505081905550505050565b3373ffffffffffffffffffffffffffffffffffffffff1660008054906101000a900473ffffffffffffffffffffffffffffffffffffffff1673ffffffffffffffffffffffffffffffffffffffff16146115e057600080fd5b60011515600760008373ffffffffffffffffffffffffffffffffffffffff1673ffffffffffffffffffffffffffffffffffffffff16815260200190815260200160002060010160159054906101000a900460ff16151514611676576040517f08c379a000000000000000000000000000000000000000000000000000000000815260040161166d90612f55565b60405180910390fd5b6000600760008373ffffffffffffffffffffffffffffffffffffffff1673ffffffffffffffffffffffffffffffffffffffff16815260200190815260200160002060010160156101000a81548160ff02191690831515021790555050565b60088060000154908060010154908060020154905083565b3373ffffffffffffffffffffffffffffffffffffffff1660008054906101000a900473ffffffffffffffffffffffffffffffffffffffff1673ffffffffffffffffffffffffffffffffffffffff161461174457600080fd5b8260086000018190555081600860010181905550806008600201819055507fe57f40133fffbe403f4a257b5f6e9a99836c507712808483bfcfe95056ac82b983838360405161179593929190612fc1565b60405180910390a1505050565b60015481565b3373ffffffffffffffffffffffffffffffffffffffff1660008054906101000a900473ffffffffffffffffffffffffffffffffffffffff1673ffffffffffffffffffffffffffffffffffffffff161461180057600080fd5b8060058190555050565b60055481565b600660003373ffffffffffffffffffffffffffffffffffffffff1673ffffffffffffffffffffffffffffffffffffffff168152602001908152602001600020600101600101544211611897576040517f08c379a000000000000000000000000000000000000000000000000000000000815260040161188e9061307d565b60405180910390fd5b600560015410156118dd576040517f08c379a00000000000000000000000000000000000000000000000000000000081526004016118d49061310f565b60405180910390fd5b600460009054906101000a900460ff1660ff16600660003373ffffffffffffffffffffffffffffffffffffffff1673ffffffffffffffffffffffffffffffffffffffff16815260200190815260200160002060010160020160008282546119449190612d69565b92505081905550600460009054906101000a900460ff1660ff166001600082825461196f919061312f565b92505081905550600554426119849190612d69565b600660003373ffffffffffffffffffffffffffffffffffffffff1673ffffffffffffffffffffffffffffffffffffffff1681526020019081526020016000206001016001018190555042600660003373ffffffffffffffffffffffffffffffffffffffff1673ffffffffffffffffffffffffffffffffffffffff16815260200190815260200160002060010160000181905550565b600660003373ffffffffffffffffffffffffffffffffffffffff1673ffffffffffffffffffffffffffffffffffffffff168152602001908152602001600020600401600101544211611aa0576040517f08c379a0000000000000000000000000000000000000000000000000000000008152600401611a97906131d5565b60405180910390fd5b60056002541015611ae6576040517f08c379a0000000000000000000000000000000000000000000000000000000008152600401611add90613267565b60405180910390fd5b600460019054906101000a900460ff1660ff16600660003373ffffffffffffffffffffffffffffffffffffffff1673ffffffffffffffffffffffffffffffffffffffff1681526020019081526020016000206004016002016000828254611b4d9190612d69565b92505081905550600460019054906101000a900460ff1660ff1660026000828254611b78919061312f565b9250508190555060055442611b8d9190612d69565b600660003373ffffffffffffffffffffffffffffffffffffffff1673ffffffffffffffffffffffffffffffffffffffff1681526020019081526020016000206004016001018190555042600660003373ffffffffffffffffffffffffffffffffffffffff1673ffffffffffffffffffffffffffffffffffffffff16815260200190815260200160002060040160000181905550565b600660003373ffffffffffffffffffffffffffffffffffffffff1673ffffffffffffffffffffffffffffffffffffffff168152602001908152602001600020600701600101544211611ca9576040517f08c379a0000000000000000000000000000000000000000000000000000000008152600401611ca0906132f9565b60405180910390fd5b60056003541015611cef576040517f08c379a0000000000000000000000000000000000000000000000000000000008152600401611ce69061338b565b60405180910390fd5b600460029054906101000a900460ff1660ff16600660003373ffffffffffffffffffffffffffffffffffffffff1673ffffffffffffffffffffffffffffffffffffffff1681526020019081526020016000206007016002016000828254611d569190612d69565b92505081905550600460029054906101000a900460ff1660ff1660036000828254611d81919061312f565b9250508190555060055442611d969190612d69565b600660003373ffffffffffffffffffffffffffffffffffffffff1673ffffffffffffffffffffffffffffffffffffffff1681526020019081526020016000206007016001018190555042600660003373ffffffffffffffffffffffffffffffffffffffff1673ffffffffffffffffffffffffffffffffffffffff16815260200190815260200160002060070160000181905550565b828054611e3790612a99565b90600052602060002090601f016020900481019282611e595760008555611ea0565b82601f10611e7257805160ff1916838001178555611ea0565b82800160010185558215611ea0579182015b82811115611e9f578251825591602001919060010190611e84565b5b509050611ead9190611eb1565b5090565b5b80821115611eca576000816000905550600101611eb2565b5090565b6000604051905090565b600080fd5b600080fd5b60038110611eef57600080fd5b50565b600081359050611f0181611ee2565b92915050565b600060208284031215611f1d57611f1c611ed8565b5b6000611f2b84828501611ef2565b91505092915050565b600060ff82169050919050565b611f4a81611f34565b82525050565b6000602082019050611f656000830184611f41565b92915050565b600073ffffffffffffffffffffffffffffffffffffffff82169050919050565b6000611f9682611f6b565b9050919050565b611fa681611f8b565b8114611fb157600080fd5b50565b600081359050611fc381611f9d565b92915050565b600060208284031215611fdf57611fde611ed8565b5b6000611fed84828501611fb4565b91505092915050565b611fff81611f8b565b82525050565b60008115159050919050565b61201a81612005565b82525050565b6000819050919050565b61203381612020565b82525050565b60608201600082015161204f600085018261202a565b506020820151612062602085018261202a565b506040820151612075604085018261202a565b50505050565b606082016000820151612091600085018261202a565b5060208201516120a4602085018261202a565b5060408201516120b7604085018261202a565b50505050565b6060820160008201516120d3600085018261202a565b5060208201516120e6602085018261202a565b5060408201516120f9604085018261202a565b50505050565b6000610160820190506121156000830188611ff6565b6121226020830187612011565b61212f6040830186612039565b61213c60a083018561207b565b61214a6101008301846120bd565b9695505050505050565b61215d81611f34565b811461216857600080fd5b50565b60008135905061217a81612154565b92915050565b60008060006060848603121561219957612198611ed8565b5b60006121a78682870161216b565b93505060206121b88682870161216b565b92505060406121c98682870161216b565b9150509250925092565b6121dc81612020565b82525050565b60006020820190506121f760008301846121d3565b92915050565b600081519050919050565b600082825260208201905092915050565b60005b8381101561223757808201518184015260208101905061221c565b83811115612246576000848401525b50505050565b6000601f19601f8301169050919050565b6000612268826121fd565b6122728185612208565b9350612282818560208601612219565b61228b8161224c565b840191505092915050565b600060c08201905081810360008301526122b0818961225d565b90506122bf6020830188611ff6565b6122cc6040830187611f41565b6122d96060830186612011565b6122e660808301856121d3565b6122f360a08301846121d3565b979650505050505050565b600080fd5b600080fd5b7f4e487b7100000000000000000000000000000000000000000000000000000000600052604160045260246000fd5b6123408261224c565b810181811067ffffffffffffffff8211171561235f5761235e612308565b5b80604052505050565b6000612372611ece565b905061237e8282612337565b919050565b600067ffffffffffffffff82111561239e5761239d612308565b5b6123a78261224c565b9050602081019050919050565b82818337600083830152505050565b60006123d66123d184612383565b612368565b9050828152602081018484840111156123f2576123f1612303565b5b6123fd8482856123b4565b509392505050565b600082601f83011261241a576124196122fe565b5b813561242a8482602086016123c3565b91505092915050565b60008060006060848603121561244c5761244b611ed8565b5b600084013567ffffffffffffffff81111561246a57612469611edd565b5b61247686828701612405565b935050602061248786828701611fb4565b92505060406124988682870161216b565b9150509250925092565b60006020820190506124b76000830184611ff6565b92915050565b6124c681612020565b81146124d157600080fd5b50565b6000813590506124e3816124bd565b92915050565b60008060006060848603121561250257612501611ed8565b5b6000612510868287016124d4565b9350506020612521868287016124d4565b9250506040612532868287016124d4565b9150509250925092565b600060608201905061255160008301866121d3565b61255e60208301856121d3565b61256b60408301846121d3565b949350505050565b60006020828403121561258957612588611ed8565b5b6000612597848285016124d4565b91505092915050565b7f526174696f6e56697472616e4b656e6472613a206e6f7420726567697374657260008201527f6564000000000000000000000000000000000000000000000000000000000000602082015250565b60006125fc602283612208565b9150612607826125a0565b604082019050919050565b6000602082019050818103600083015261262b816125ef565b9050919050565b7f4e487b7100000000000000000000000000000000000000000000000000000000600052602160045260246000fd5b7f526174696f6e56697472616e4b656e6472613a2070726f76696465207265717560008201527f6972656420616d6f756e7420666f722070756c73657300000000000000000000602082015250565b60006126bd603683612208565b91506126c882612661565b604082019050919050565b600060208201905081810360008301526126ec816126b0565b9050919050565b7f70756c7365730000000000000000000000000000000000000000000000000000600082015250565b6000612729600683612208565b9150612734826126f3565b602082019050919050565b60006060820190506127546000830185611ff6565b6127616020830184612011565b81810360408301526127728161271c565b90509392505050565b7f526174696f6e56697472616e4b656e6472613a2070726f76696465207265717560008201527f6972656420616d6f756e7420666f722072696365000000000000000000000000602082015250565b60006127d7603483612208565b91506127e28261277b565b604082019050919050565b60006020820190508181036000830152612806816127ca565b9050919050565b7f7269636500000000000000000000000000000000000000000000000000000000600082015250565b6000612843600483612208565b915061284e8261280d565b602082019050919050565b600060608201905061286e6000830185611ff6565b61287b6020830184612011565b818103604083015261288c81612836565b90509392505050565b7f526174696f6e56697472616e4b656e6472613a2070726f76696465207265717560008201527f6972656420616d6f756e7420666f722077686561740000000000000000000000602082015250565b60006128f1603583612208565b91506128fc82612895565b604082019050919050565b60006020820190508181036000830152612920816128e4565b9050919050565b7f7768656174000000000000000000000000000000000000000000000000000000600082015250565b600061295d600583612208565b915061296882612927565b602082019050919050565b60006060820190506129886000830185611ff6565b6129956020830184612011565b81810360408301526129a681612950565b90509392505050565b7f526174696f6e56697472616e4b656e6472613a207573657220697320616c726560008201527f6164792072656769737465726564000000000000000000000000000000000000602082015250565b6000612a0b602e83612208565b9150612a16826129af565b604082019050919050565b60006020820190508181036000830152612a3a816129fe565b9050919050565b6000604082019050612a566000830185611ff6565b612a636020830184612011565b9392505050565b7f4e487b7100000000000000000000000000000000000000000000000000000000600052602260045260246000fd5b60006002820490506001821680612ab157607f821691505b602082108103612ac457612ac3612a6a565b5b50919050565b7f526174696f6e56697472616e4b656e6472613a206e6f7420526567697374657260008201527f6564206368617269747900000000000000000000000000000000000000000000602082015250565b6000612b26602a83612208565b9150612b3182612aca565b604082019050919050565b60006020820190508181036000830152612b5581612b19565b9050919050565b7f526174696f6e56697472616e4b656e6472613a206561726c792077697468647260008201527f6177207265717565737420697373756500000000000000000000000000000000602082015250565b6000612bb8603083612208565b9150612bc382612b5c565b604082019050919050565b60006020820190508181036000830152612be781612bab565b9050919050565b7f526174696f6e56697472616e4b656e6472613a20646f6573206e6f742068617660008201527f652066756e640000000000000000000000000000000000000000000000000000602082015250565b6000612c4a602683612208565b9150612c5582612bee565b604082019050919050565b60006020820190508181036000830152612c7981612c3d565b9050919050565b7f4e487b7100000000000000000000000000000000000000000000000000000000600052601160045260246000fd5b6000612cba82612020565b9150612cc583612020565b9250817fffffffffffffffffffffffffffffffffffffffffffffffffffffffffffffffff0483118215151615612cfe57612cfd612c80565b5b828202905092915050565b7f4e487b7100000000000000000000000000000000000000000000000000000000600052601260045260246000fd5b6000612d4382612020565b9150612d4e83612020565b925082612d5e57612d5d612d09565b5b828204905092915050565b6000612d7482612020565b9150612d7f83612020565b9250827fffffffffffffffffffffffffffffffffffffffffffffffffffffffffffffffff03821115612db457612db3612c80565b5b828201905092915050565b7f526174696f6e56697472616e4b656e6472613a206368617269747920616c726560008201527f6164792072656769737465726564000000000000000000000000000000000000602082015250565b6000612e1b602e83612208565b9150612e2682612dbf565b604082019050919050565b60006020820190508181036000830152612e4a81612e0e565b9050919050565b7f526174696f6e56697472616e4b656e6472613a2075736572206973206e6f742060008201527f696e2072656769737465726564206c6973740000000000000000000000000000602082015250565b6000612ead603283612208565b9150612eb882612e51565b604082019050919050565b60006020820190508181036000830152612edc81612ea0565b9050919050565b7f526174696f6e56697472616e4b656e6472613a20616c726561647920696e616360008201527f7469766520636861726974790000000000000000000000000000000000000000602082015250565b6000612f3f602c83612208565b9150612f4a82612ee3565b604082019050919050565b60006020820190508181036000830152612f6e81612f32565b9050919050565b7f6974656d73207072696365206973207570646174656400000000000000000000600082015250565b6000612fab601683612208565b9150612fb682612f75565b602082019050919050565b6000608082019050612fd660008301866121d3565b612fe360208301856121d3565b612ff060408301846121d3565b818103606083015261300181612f9e565b9050949350505050565b7f526174696f6e56697472616e4b656e6472613a206561726c792070756c73657360008201527f2077697468647261772072657175657374206973737565000000000000000000602082015250565b6000613067603783612208565b91506130728261300b565b604082019050919050565b600060208201905081810360008301526130968161305a565b9050919050565b7f526174696f6e56697472616e4b656e6472613a20696e73756666696369656e7460008201527f2070756c73657320000000000000000000000000000000000000000000000000602082015250565b60006130f9602883612208565b91506131048261309d565b604082019050919050565b60006020820190508181036000830152613128816130ec565b9050919050565b600061313a82612020565b915061314583612020565b92508282101561315857613157612c80565b5b828203905092915050565b7f526174696f6e56697472616e4b656e6472613a206561726c792072696365207760008201527f6974686472617720726571756573742069737375650000000000000000000000602082015250565b60006131bf603583612208565b91506131ca82613163565b604082019050919050565b600060208201905081810360008301526131ee816131b2565b9050919050565b7f526174696f6e56697472616e4b656e6472613a20696e73756666696369656e7460008201527f2072696365200000000000000000000000000000000000000000000000000000602082015250565b6000613251602683612208565b915061325c826131f5565b604082019050919050565b6000602082019050818103600083015261328081613244565b9050919050565b7f526174696f6e56697472616e4b656e6472613a206561726c792077686561742060008201527f7769746864726177207265717565737420697373756500000000000000000000602082015250565b60006132e3603683612208565b91506132ee82613287565b604082019050919050565b60006020820190508181036000830152613312816132d6565b9050919050565b7f526174696f6e56697472616e4b656e6472613a20696e73756666696369656e7460008201527f2077686561742000000000000000000000000000000000000000000000000000602082015250565b6000613375602783612208565b915061338082613319565b604082019050919050565b600060208201905081810360008301526133a481613368565b905091905056fea264697066735822122056a0a2031b74dd7ae85bac76a10c9aa2776f0bb1de997bf5e9f079738dbe153a64736f6c634300080d0033",
  "immutableReferences": {},
  "source": "// SPDX-License-Identifier: UNLICENSED\npragma solidity ^0.8.4;\n\ncontract RationVitranKendra {    \n    address public owner;\n    uint public totalPulses=10000;\n    uint public totalRice=10000;\n    uint public totalWheat=10000;\n    uint8 public pulsesDistribute=5;\n    uint8 public riceDistribute=5;\n    uint8 public wheatDistribute=5;\n    uint public nextDueTimePeriod=20;// 30 days =2592000 sec.\n\n    struct itemsPrice{\n        uint pulsesPrice;\n        uint ricePrice;\n        uint wheatPrice;\n    }\n\n    struct PulsesStr {\n        uint256 time;\n        uint256 nextDue;\n        uint userPulses;\n        // uint price;\n    }\n\n    struct RiceStr {\n        uint256 time;\n        uint256 nextDue;\n        uint userRice;\n    }\n    \n    struct WheatStr {\n        uint256 time;\n        uint256 nextDue;\n        uint userWheat;\n    }\n\n    struct User{\n        address userAddress;\n        bool isActive; //status of user\n        PulsesStr pulsesInfo;\n        RiceStr riceInfo;\n        WheatStr wheatInfo;\n    }\n\n    struct Charity{\n        string charityName;\n        address charityAddress;\n        uint8 charityShare;\n        bool isActive;\n        uint time;\n        uint nextDueTime;\n    }\n    \n    mapping(address => User) public userMap;\n    mapping(address => Charity) public charityMap;\n    enum rawItems{pulses,rice,wheat}\n    itemsPrice public ip;\n    constructor() {\n        owner = msg.sender;\n        updateItemsPrice(20000000000000,15000000000000,10000000000000);\n    }\n    event registerUserEvent(address adsOfUser,bool isActive);\n    event withdrawEvent(address adsOfUser,bool hasTaken,string item);\n    event userRemovingEvent(address adsOfUser,bool isActive);\n    event updateItemsPriceEvent(uint pulsesPrice,uint ricePrice,uint wheatPrice,string msg);\n   \n    function registerUser(address adsOfUser) public onlyOwner {\n        require(userMap[adsOfUser].isActive==false,\"RationVitranKendra: user is already registered\");\n        PulsesStr memory tempPulses = PulsesStr(0, 0,0);\n        RiceStr memory tempRice = RiceStr(0, 0,0);\n        WheatStr memory tempWheat = WheatStr(0, 0,0);\n        User memory tempUserStr = User(adsOfUser, true, tempPulses,tempRice,tempWheat);\n        userMap[adsOfUser] = tempUserStr;\n        emit registerUserEvent(adsOfUser,true);\n    }\n\n    function withDrawRation(rawItems item) public payable {\n        require(userMap[msg.sender].isActive, \"RationVitranKendra: not registered\");\n        if(item==rawItems.pulses){\n            require(msg.value>ip.pulsesPrice,\"RationVitranKendra: provide required amount for pulses\");\n            _withDrawPulses();\n            emit withdrawEvent(msg.sender,true,\"pulses\");\n\n        }else if(item==rawItems.rice){\n            require(msg.value>ip.ricePrice,\"RationVitranKendra: provide required amount for rice\");\n            _withDrawRice();\n            emit withdrawEvent(msg.sender,true,\"rice\");\n\n        }else if(item==rawItems.wheat){\n            require(msg.value>ip.pulsesPrice,\"RationVitranKendra: provide required amount for wheat\");\n            _withDrawWheat();\n            emit withdrawEvent(msg.sender,true,\"wheat\");\n        }\n    }\n        \n    function _withDrawPulses() internal {\n         require(\n            block.timestamp > userMap[msg.sender].pulsesInfo.nextDue,\n            \"RationVitranKendra: early pulses withdraw request issue\"\n        );\n        require(totalPulses>=5,\"RationVitranKendra: insufficient pulses \");\n        userMap[msg.sender].pulsesInfo.userPulses+=pulsesDistribute;\n        totalPulses-=pulsesDistribute;\n        // 30 days in second=nextDueTimePeriod\n        userMap[msg.sender].pulsesInfo.nextDue = block.timestamp + nextDueTimePeriod;\n        userMap[msg.sender].pulsesInfo.time = block.timestamp;\n    }\n\n    function _withDrawRice() internal {\n         require(\n            block.timestamp > userMap[msg.sender].riceInfo.nextDue,\n            \"RationVitranKendra: early rice withdraw request issue\"\n        );\n        require(totalRice>=5,\"RationVitranKendra: insufficient rice \");\n        userMap[msg.sender].riceInfo.userRice+=riceDistribute;\n        totalRice-=riceDistribute;\n        // 30 days in second=nextDueTimePeriod\n        userMap[msg.sender].riceInfo.nextDue = block.timestamp + nextDueTimePeriod;\n        userMap[msg.sender].riceInfo.time = block.timestamp;\n    }\n\n    function _withDrawWheat() internal {\n         require(\n            block.timestamp > userMap[msg.sender].wheatInfo.nextDue,\n            \"RationVitranKendra: early wheat withdraw request issue\"\n        );\n        require(totalWheat>=5,\"RationVitranKendra: insufficient wheat \");\n        userMap[msg.sender].wheatInfo.userWheat+=wheatDistribute;\n        totalWheat-=wheatDistribute;\n        // 30 days in second=nextDueTimePeriod\n        userMap[msg.sender].wheatInfo.nextDue = block.timestamp + nextDueTimePeriod;\n        userMap[msg.sender].wheatInfo.time = block.timestamp;\n    }\n\n    function removeUser(address toRemoveUser) public onlyOwner {\n        require(userMap[toRemoveUser].isActive==true,\"RationVitranKendra: user is not in registered list\");\n        userMap[toRemoveUser].isActive=false;\n        emit userRemovingEvent(toRemoveUser,false);\n       \n    }\n\n    function charityRegistration(string memory _charityName,address _charityAddress,uint8 _charityShare) public onlyOwner{\n        require(charityMap[_charityAddress].isActive==false,\"RationVitranKendra: charity already registered\");\n        charityMap[_charityAddress].charityName=_charityName;\n        charityMap[_charityAddress].charityAddress=_charityAddress;\n        charityMap[_charityAddress].charityShare=_charityShare;\n        charityMap[_charityAddress].isActive=true;\n        charityMap[_charityAddress].time=block.timestamp;\n        charityMap[_charityAddress].nextDueTime=block.timestamp;\n    }\n\n    function removeCharity(address toRemoveCharity) public onlyOwner{\n        require(charityMap[toRemoveCharity].isActive==true,\"RationVitranKendra: already inactive charity\");\n        charityMap[toRemoveCharity].isActive=false;\n\n    } \n\n    function withDrawFund() public {\n        require(charityMap[msg.sender].isActive==true,\"RationVitranKendra: not Registered charity\");\n        require(block.timestamp>charityMap[msg.sender].nextDueTime,\"RationVitranKendra: early withdraw request issue\");\n        require(address(this).balance>0,\"RationVitranKendra: does not have fund\");\n        address payable charityAddress=payable(msg.sender);\n        charityAddress.transfer((address(this).balance*charityMap[msg.sender].charityShare)/100);\n        charityMap[msg.sender].time=block.timestamp;\n        charityMap[msg.sender].nextDueTime=block.timestamp+nextDueTimePeriod;\n    }\n\n    function refilling(uint _pulses,uint _rice,uint _wheat) public onlyOwner{\n        totalPulses+=_pulses;\n        totalRice+=_rice;\n        totalWheat+=_wheat;\n    }\n\n    function updateItemsQuantity(uint8 _pulsesDistribute,uint8 _riceDistribute,uint8 _wheatDistribute) public onlyOwner{\n        pulsesDistribute=_pulsesDistribute;\n        riceDistribute=_riceDistribute;\n        wheatDistribute=_wheatDistribute;\n    }\n\n    function getContractBal() public view returns(uint){\n        return address(this).balance;\n    }\n\n    function changeDistributionTime(uint newtime)public onlyOwner{\n        nextDueTimePeriod=newtime;\n    }\n\n    function updateItemsPrice(uint _pulsesPrice,uint _ricePrice,uint _wheatPrice) public onlyOwner{\n        ip.pulsesPrice=_pulsesPrice;\n        ip.ricePrice=_ricePrice;\n        ip.wheatPrice=_wheatPrice;\n        emit updateItemsPriceEvent(_pulsesPrice,_ricePrice,_wheatPrice,\"items price is updated\");\n\n    }\n    \n    modifier onlyOwner() {\n        require(owner == msg.sender);\n        _;\n    }\n\n}\n",
  "sourcePath": "/home/ubox19/Desktop/assignments/RationVitranKendra/contracts/RationVitranKendra.sol",
  "compiler": {
    "name": "solc",
    "version": "0.8.13+commit.abaa5c0e.Emscripten.clang"
  },
  "schemaVersion": "3.4.7",
  "updatedAt": "2022-04-25T11:58:08.566Z",
  "networkType": "ethereum",
  "devdoc": {
    "kind": "dev",
    "methods": {},
    "version": 1
  },
  "userdoc": {
    "kind": "user",
    "methods": {},
    "version": 1
  }
}