{
  "contractName": "RationVitranKendra",
  "abi": [
    {
      "inputs": [],
      "stateMutability": "nonpayable",
      "type": "constructor"
    },
    {
      "anonymous": false,
      "inputs": [
        {
          "indexed": false,
          "internalType": "address",
          "name": "adsOfUser",
          "type": "address"
        },
        {
          "indexed": false,
          "internalType": "bool",
          "name": "isActive",
          "type": "bool"
        }
      ],
      "name": "registerUserEvent",
      "type": "event"
    },
    {
      "anonymous": false,
      "inputs": [
        {
          "indexed": false,
          "internalType": "address",
          "name": "adsOfUser",
          "type": "address"
        },
        {
          "indexed": false,
          "internalType": "bool",
          "name": "isActive",
          "type": "bool"
        }
      ],
      "name": "userRemovingEvent",
      "type": "event"
    },
    {
      "anonymous": false,
      "inputs": [
        {
          "indexed": false,
          "internalType": "address",
          "name": "adsOfUser",
          "type": "address"
        },
        {
          "indexed": false,
          "internalType": "bool",
          "name": "hasTaken",
          "type": "bool"
        },
        {
          "indexed": false,
          "internalType": "string",
          "name": "item",
          "type": "string"
        }
      ],
      "name": "withdrawEvent",
      "type": "event"
    },
    {
      "inputs": [
        {
          "internalType": "address",
          "name": "",
          "type": "address"
        }
      ],
      "name": "charityMap",
      "outputs": [
        {
          "internalType": "string",
          "name": "charityName",
          "type": "string"
        },
        {
          "internalType": "address",
          "name": "charityAddress",
          "type": "address"
        },
        {
          "internalType": "uint8",
          "name": "charityShare",
          "type": "uint8"
        },
        {
          "internalType": "bool",
          "name": "isActive",
          "type": "bool"
        }
      ],
      "stateMutability": "view",
      "type": "function",
      "constant": true
    },
    {
      "inputs": [],
      "name": "nextDueTimePeriod",
      "outputs": [
        {
          "internalType": "uint256",
          "name": "",
          "type": "uint256"
        }
      ],
      "stateMutability": "view",
      "type": "function",
      "constant": true
    },
    {
      "inputs": [],
      "name": "owner",
      "outputs": [
        {
          "internalType": "address",
          "name": "",
          "type": "address"
        }
      ],
      "stateMutability": "view",
      "type": "function",
      "constant": true
    },
    {
      "inputs": [],
      "name": "pulsesDistribute",
      "outputs": [
        {
          "internalType": "uint8",
          "name": "",
          "type": "uint8"
        }
      ],
      "stateMutability": "view",
      "type": "function",
      "constant": true
    },
    {
      "inputs": [],
      "name": "riceDistribute",
      "outputs": [
        {
          "internalType": "uint8",
          "name": "",
          "type": "uint8"
        }
      ],
      "stateMutability": "view",
      "type": "function",
      "constant": true
    },
    {
      "inputs": [],
      "name": "totalPulses",
      "outputs": [
        {
          "internalType": "uint256",
          "name": "",
          "type": "uint256"
        }
      ],
      "stateMutability": "view",
      "type": "function",
      "constant": true
    },
    {
      "inputs": [],
      "name": "totalRice",
      "outputs": [
        {
          "internalType": "uint256",
          "name": "",
          "type": "uint256"
        }
      ],
      "stateMutability": "view",
      "type": "function",
      "constant": true
    },
    {
      "inputs": [],
      "name": "totalWheat",
      "outputs": [
        {
          "internalType": "uint256",
          "name": "",
          "type": "uint256"
        }
      ],
      "stateMutability": "view",
      "type": "function",
      "constant": true
    },
    {
      "inputs": [
        {
          "internalType": "address",
          "name": "",
          "type": "address"
        }
      ],
      "name": "userMap",
      "outputs": [
        {
          "internalType": "address",
          "name": "userAddress",
          "type": "address"
        },
        {
          "internalType": "bool",
          "name": "isActive",
          "type": "bool"
        },
        {
          "components": [
            {
              "internalType": "uint256",
              "name": "time",
              "type": "uint256"
            },
            {
              "internalType": "uint256",
              "name": "nextDue",
              "type": "uint256"
            },
            {
              "internalType": "uint256",
              "name": "userPulses",
              "type": "uint256"
            }
          ],
          "internalType": "struct RationVitranKendra.PulsesStr",
          "name": "pulsesInfo",
          "type": "tuple"
        },
        {
          "components": [
            {
              "internalType": "uint256",
              "name": "time",
              "type": "uint256"
            },
            {
              "internalType": "uint256",
              "name": "nextDue",
              "type": "uint256"
            },
            {
              "internalType": "uint256",
              "name": "userRice",
              "type": "uint256"
            }
          ],
          "internalType": "struct RationVitranKendra.RiceStr",
          "name": "riceInfo",
          "type": "tuple"
        },
        {
          "components": [
            {
              "internalType": "uint256",
              "name": "time",
              "type": "uint256"
            },
            {
              "internalType": "uint256",
              "name": "nextDue",
              "type": "uint256"
            },
            {
              "internalType": "uint256",
              "name": "userWheat",
              "type": "uint256"
            }
          ],
          "internalType": "struct RationVitranKendra.WheatStr",
          "name": "wheatInfo",
          "type": "tuple"
        }
      ],
      "stateMutability": "view",
      "type": "function",
      "constant": true
    },
    {
      "inputs": [],
      "name": "wheatDistribute",
      "outputs": [
        {
          "internalType": "uint8",
          "name": "",
          "type": "uint8"
        }
      ],
      "stateMutability": "view",
      "type": "function",
      "constant": true
    },
    {
      "inputs": [
        {
          "internalType": "address",
          "name": "adsOfUser",
          "type": "address"
        }
      ],
      "name": "registerUser",
      "outputs": [],
      "stateMutability": "nonpayable",
      "type": "function"
    },
    {
      "inputs": [
        {
          "internalType": "enum RationVitranKendra.rawItems",
          "name": "item",
          "type": "uint8"
        }
      ],
      "name": "withDrawRation",
      "outputs": [],
      "stateMutability": "payable",
      "type": "function",
      "payable": true
    },
    {
      "inputs": [
        {
          "internalType": "address",
          "name": "toRemoveUser",
          "type": "address"
        }
      ],
      "name": "removeUser",
      "outputs": [],
      "stateMutability": "nonpayable",
      "type": "function"
    },
    {
      "inputs": [
        {
          "internalType": "string",
          "name": "_charityName",
          "type": "string"
        },
        {
          "internalType": "address",
          "name": "_charityAddress",
          "type": "address"
        },
        {
          "internalType": "uint8",
          "name": "_charityShare",
          "type": "uint8"
        }
      ],
      "name": "charityRegistration",
      "outputs": [],
      "stateMutability": "nonpayable",
      "type": "function"
    },
    {
      "inputs": [
        {
          "internalType": "address",
          "name": "toRemoveCharity",
          "type": "address"
        }
      ],
      "name": "removeCharity",
      "outputs": [],
      "stateMutability": "nonpayable",
      "type": "function"
    },
    {
      "inputs": [],
      "name": "withDrawFund",
      "outputs": [],
      "stateMutability": "nonpayable",
      "type": "function"
    },
    {
      "inputs": [
        {
          "internalType": "uint256",
          "name": "_pulses",
          "type": "uint256"
        },
        {
          "internalType": "uint256",
          "name": "_rice",
          "type": "uint256"
        },
        {
          "internalType": "uint256",
          "name": "_wheat",
          "type": "uint256"
        }
      ],
      "name": "refilling",
      "outputs": [],
      "stateMutability": "nonpayable",
      "type": "function"
    },
    {
      "inputs": [
        {
          "internalType": "uint8",
          "name": "_pulsesDistribute",
          "type": "uint8"
        },
        {
          "internalType": "uint8",
          "name": "_riceDistribute",
          "type": "uint8"
        },
        {
          "internalType": "uint8",
          "name": "_wheatDistribute",
          "type": "uint8"
        }
      ],
      "name": "updateItemsQuantity",
      "outputs": [],
      "stateMutability": "nonpayable",
      "type": "function"
    },
    {
      "inputs": [],
      "name": "getContractBal",
      "outputs": [
        {
          "internalType": "uint256",
          "name": "",
          "type": "uint256"
        }
      ],
      "stateMutability": "view",
      "type": "function",
      "constant": true
    },
    {
      "inputs": [
        {
          "internalType": "uint256",
          "name": "newtime",
          "type": "uint256"
        }
      ],
      "name": "changeDistributionTime",
      "outputs": [],
      "stateMutability": "nonpayable",
      "type": "function"
    }
  ],
  "bytecode": "0x60806040526127106001556127106002556127106003556005600460006101000a81548160ff021916908360ff1602179055506005600460016101000a81548160ff021916908360ff1602179055506005600460026101000a81548160ff021916908360ff16021790555062278d0060055534801561007d57600080fd5b50336000806101000a81548173ffffffffffffffffffffffffffffffffffffffff021916908373ffffffffffffffffffffffffffffffffffffffff16021790555061297d806100cd6000396000f3fe60806040526004361061011f5760003560e01c80636fc00fac116100a0578063a5a217cd11610064578063a5a217cd146103a9578063abefe591146103d2578063db443ff4146103fb578063e4f784af14610426578063eb105d6c1461044f5761011f565b80636fc00fac146102d6578063884e7e97146103015780638da5cb5b1461032a57806398575188146103555780639feda1721461037e5761011f565b8063303d1257116100e7578063303d12571461020057806352f5446a14610229578063566ddf79146102545780635d9fa6fc14610294578063671473a5146102bf5761011f565b806311d697a71461012457806314d9f1791461014057806320fb47b51461016b5780632199d5cd146101965780632bcc23f8146101bf575b600080fd5b61013e6004803603810190610139919061198a565b61047a565b005b34801561014c57600080fd5b506101556106a7565b60405161016291906119d3565b60405180910390f35b34801561017757600080fd5b506101806106ba565b60405161018d91906119d3565b60405180910390f35b3480156101a257600080fd5b506101bd60048036038101906101b89190611a4c565b6106cd565b005b3480156101cb57600080fd5b506101e660048036038101906101e19190611a4c565b610935565b6040516101f7959493929190611b82565b60405180910390f35b34801561020c57600080fd5b5061022760048036038101906102229190611c03565b610a10565b005b34801561023557600080fd5b5061023e610abe565b60405161024b9190611c65565b60405180910390f35b34801561026057600080fd5b5061027b60048036038101906102769190611a4c565b610ac4565b60405161028b9493929190611d19565b60405180910390f35b3480156102a057600080fd5b506102a9610bb6565b6040516102b69190611c65565b60405180910390f35b3480156102cb57600080fd5b506102d4610bbe565b005b3480156102e257600080fd5b506102eb610d19565b6040516102f891906119d3565b60405180910390f35b34801561030d57600080fd5b5061032860048036038101906103239190611e9a565b610d2c565b005b34801561033657600080fd5b5061033f610f17565b60405161034c9190611f09565b60405180910390f35b34801561036157600080fd5b5061037c60048036038101906103779190611a4c565b610f3b565b005b34801561038a57600080fd5b5061039361102b565b6040516103a09190611c65565b60405180910390f35b3480156103b557600080fd5b506103d060048036038101906103cb9190611f50565b611031565b005b3480156103de57600080fd5b506103f960048036038101906103f49190611a4c565b6110d9565b005b34801561040757600080fd5b50610410611225565b60405161041d9190611c65565b60405180910390f35b34801561043257600080fd5b5061044d60048036038101906104489190611fa3565b61122b565b005b34801561045b57600080fd5b5061046461128d565b6040516104719190611c65565b60405180910390f35b600660003373ffffffffffffffffffffffffffffffffffffffff1673ffffffffffffffffffffffffffffffffffffffff16815260200190815260200160002060000160149054906101000a900460ff16610509576040517f08c379a000000000000000000000000000000000000000000000000000000000815260040161050090612042565b60405180910390fd5b61271034101561054e576040517f08c379a0000000000000000000000000000000000000000000000000000000008152600401610545906120d4565b60405180910390fd5b60006002811115610562576105616120f4565b5b816002811115610575576105746120f4565b5b036105c157610582611293565b7fb72490c1395f561eb1eea7cb8c1de34720a59e2fdf8da47cd1ca5c32e2c2ffc13360016040516105b492919061216f565b60405180910390a16106a4565b600160028111156105d5576105d46120f4565b5b8160028111156105e8576105e76120f4565b5b03610634576105f561149c565b7fb72490c1395f561eb1eea7cb8c1de34720a59e2fdf8da47cd1ca5c32e2c2ffc13360016040516106279291906121f7565b60405180910390a16106a3565b600280811115610647576106466120f4565b5b81600281111561065a576106596120f4565b5b036106a2576106676116a5565b7fb72490c1395f561eb1eea7cb8c1de34720a59e2fdf8da47cd1ca5c32e2c2ffc133600160405161069992919061227f565b60405180910390a15b5b5b50565b600460019054906101000a900460ff1681565b600460029054906101000a900460ff1681565b3373ffffffffffffffffffffffffffffffffffffffff1660008054906101000a900473ffffffffffffffffffffffffffffffffffffffff1673ffffffffffffffffffffffffffffffffffffffff161461072557600080fd5b60006040518060600160405280600081526020016000815260200160008152509050600060405180606001604052806000815260200160008152602001600081525090506000604051806060016040528060008152602001600081526020016000815250905060006040518060a001604052808673ffffffffffffffffffffffffffffffffffffffff16815260200160011515815260200185815260200184815260200183815250905080600660008773ffffffffffffffffffffffffffffffffffffffff1673ffffffffffffffffffffffffffffffffffffffff16815260200190815260200160002060008201518160000160006101000a81548173ffffffffffffffffffffffffffffffffffffffff021916908373ffffffffffffffffffffffffffffffffffffffff16021790555060208201518160000160146101000a81548160ff0219169083151502179055506040820151816001016000820151816000015560208201518160010155604082015181600201555050606082015181600401600082015181600001556020820151816001015560408201518160020155505060808201518160070160008201518160000155602082015181600101556040820151816002015550509050507fb931130ba5c92ae531ee0fd043c48e7b5e7ca215d4ea39ba44a9a827187096808560016040516109269291906122bb565b60405180910390a15050505050565b60066020528060005260406000206000915090508060000160009054906101000a900473ffffffffffffffffffffffffffffffffffffffff16908060000160149054906101000a900460ff16908060010160405180606001604052908160008201548152602001600182015481526020016002820154815250509080600401604051806060016040529081600082015481526020016001820154815260200160028201548152505090806007016040518060600160405290816000820154815260200160018201548152602001600282015481525050905085565b3373ffffffffffffffffffffffffffffffffffffffff1660008054906101000a900473ffffffffffffffffffffffffffffffffffffffff1673ffffffffffffffffffffffffffffffffffffffff1614610a6857600080fd5b82600460006101000a81548160ff021916908360ff16021790555081600460016101000a81548160ff021916908360ff16021790555080600460026101000a81548160ff021916908360ff160217905550505050565b60035481565b6007602052806000526040600020600091509050806000018054610ae790612313565b80601f0160208091040260200160405190810160405280929190818152602001828054610b1390612313565b8015610b605780601f10610b3557610100808354040283529160200191610b60565b820191906000526020600020905b815481529060010190602001808311610b4357829003601f168201915b5050505050908060010160009054906101000a900473ffffffffffffffffffffffffffffffffffffffff16908060010160149054906101000a900460ff16908060010160159054906101000a900460ff16905084565b600047905090565b60011515600760003373ffffffffffffffffffffffffffffffffffffffff1673ffffffffffffffffffffffffffffffffffffffff16815260200190815260200160002060010160159054906101000a900460ff16151514610c54576040517f08c379a0000000000000000000000000000000000000000000000000000000008152600401610c4b906123b6565b60405180910390fd5b60004711610c6157600080fd5b60003390508073ffffffffffffffffffffffffffffffffffffffff166108fc6064600760003373ffffffffffffffffffffffffffffffffffffffff1673ffffffffffffffffffffffffffffffffffffffff16815260200190815260200160002060010160149054906101000a900460ff1660ff1647610ce09190612405565b610cea919061248e565b9081150290604051600060405180830381858888f19350505050158015610d15573d6000803e3d6000fd5b5050565b600460009054906101000a900460ff1681565b3373ffffffffffffffffffffffffffffffffffffffff1660008054906101000a900473ffffffffffffffffffffffffffffffffffffffff1673ffffffffffffffffffffffffffffffffffffffff1614610d8457600080fd5b82600760008473ffffffffffffffffffffffffffffffffffffffff1673ffffffffffffffffffffffffffffffffffffffff1681526020019081526020016000206000019080519060200190610dda9291906118ae565b5081600760008473ffffffffffffffffffffffffffffffffffffffff1673ffffffffffffffffffffffffffffffffffffffff16815260200190815260200160002060010160006101000a81548173ffffffffffffffffffffffffffffffffffffffff021916908373ffffffffffffffffffffffffffffffffffffffff16021790555080600760008473ffffffffffffffffffffffffffffffffffffffff1673ffffffffffffffffffffffffffffffffffffffff16815260200190815260200160002060010160146101000a81548160ff021916908360ff1602179055506001600760008473ffffffffffffffffffffffffffffffffffffffff1673ffffffffffffffffffffffffffffffffffffffff16815260200190815260200160002060010160156101000a81548160ff021916908315150217905550505050565b60008054906101000a900473ffffffffffffffffffffffffffffffffffffffff1681565b3373ffffffffffffffffffffffffffffffffffffffff1660008054906101000a900473ffffffffffffffffffffffffffffffffffffffff1673ffffffffffffffffffffffffffffffffffffffff1614610f9357600080fd5b6000600660008373ffffffffffffffffffffffffffffffffffffffff1673ffffffffffffffffffffffffffffffffffffffff16815260200190815260200160002060000160146101000a81548160ff0219169083151502179055507ff4e5abc56ec0b3251c9d322cd0a01420895002f6b6427e17a03e54b18104e5ee8160006040516110209291906122bb565b60405180910390a150565b60025481565b3373ffffffffffffffffffffffffffffffffffffffff1660008054906101000a900473ffffffffffffffffffffffffffffffffffffffff1673ffffffffffffffffffffffffffffffffffffffff161461108957600080fd5b826001600082825461109b91906124bf565b9250508190555081600260008282546110b491906124bf565b9250508190555080600360008282546110cd91906124bf565b92505081905550505050565b3373ffffffffffffffffffffffffffffffffffffffff1660008054906101000a900473ffffffffffffffffffffffffffffffffffffffff1673ffffffffffffffffffffffffffffffffffffffff161461113157600080fd5b60011515600760008373ffffffffffffffffffffffffffffffffffffffff1673ffffffffffffffffffffffffffffffffffffffff16815260200190815260200160002060010160159054906101000a900460ff161515146111c7576040517f08c379a00000000000000000000000000000000000000000000000000000000081526004016111be90612587565b60405180910390fd5b6000600760008373ffffffffffffffffffffffffffffffffffffffff1673ffffffffffffffffffffffffffffffffffffffff16815260200190815260200160002060010160156101000a81548160ff02191690831515021790555050565b60015481565b3373ffffffffffffffffffffffffffffffffffffffff1660008054906101000a900473ffffffffffffffffffffffffffffffffffffffff1673ffffffffffffffffffffffffffffffffffffffff161461128357600080fd5b8060058190555050565b60055481565b600660003373ffffffffffffffffffffffffffffffffffffffff1673ffffffffffffffffffffffffffffffffffffffff16815260200190815260200160002060010160010154421161131a576040517f08c379a000000000000000000000000000000000000000000000000000000000815260040161131190612619565b60405180910390fd5b60056001541015611360576040517f08c379a0000000000000000000000000000000000000000000000000000000008152600401611357906126ab565b60405180910390fd5b600460009054906101000a900460ff1660ff16600660003373ffffffffffffffffffffffffffffffffffffffff1673ffffffffffffffffffffffffffffffffffffffff16815260200190815260200160002060010160020160008282546113c791906124bf565b92505081905550600460009054906101000a900460ff1660ff16600160008282546113f291906126cb565b925050819055506005544261140791906124bf565b600660003373ffffffffffffffffffffffffffffffffffffffff1673ffffffffffffffffffffffffffffffffffffffff1681526020019081526020016000206001016001018190555042600660003373ffffffffffffffffffffffffffffffffffffffff1673ffffffffffffffffffffffffffffffffffffffff16815260200190815260200160002060010160000181905550565b600660003373ffffffffffffffffffffffffffffffffffffffff1673ffffffffffffffffffffffffffffffffffffffff168152602001908152602001600020600401600101544211611523576040517f08c379a000000000000000000000000000000000000000000000000000000000815260040161151a90612771565b60405180910390fd5b60056002541015611569576040517f08c379a000000000000000000000000000000000000000000000000000000000815260040161156090612803565b60405180910390fd5b600460019054906101000a900460ff1660ff16600660003373ffffffffffffffffffffffffffffffffffffffff1673ffffffffffffffffffffffffffffffffffffffff16815260200190815260200160002060040160020160008282546115d091906124bf565b92505081905550600460019054906101000a900460ff1660ff16600260008282546115fb91906126cb565b925050819055506005544261161091906124bf565b600660003373ffffffffffffffffffffffffffffffffffffffff1673ffffffffffffffffffffffffffffffffffffffff1681526020019081526020016000206004016001018190555042600660003373ffffffffffffffffffffffffffffffffffffffff1673ffffffffffffffffffffffffffffffffffffffff16815260200190815260200160002060040160000181905550565b600660003373ffffffffffffffffffffffffffffffffffffffff1673ffffffffffffffffffffffffffffffffffffffff16815260200190815260200160002060070160010154421161172c576040517f08c379a000000000000000000000000000000000000000000000000000000000815260040161172390612895565b60405180910390fd5b60056003541015611772576040517f08c379a000000000000000000000000000000000000000000000000000000000815260040161176990612927565b60405180910390fd5b600460029054906101000a900460ff1660ff16600660003373ffffffffffffffffffffffffffffffffffffffff1673ffffffffffffffffffffffffffffffffffffffff16815260200190815260200160002060070160020160008282546117d991906124bf565b92505081905550600460029054906101000a900460ff1660ff166003600082825461180491906126cb565b925050819055506005544261181991906124bf565b600660003373ffffffffffffffffffffffffffffffffffffffff1673ffffffffffffffffffffffffffffffffffffffff1681526020019081526020016000206007016001018190555042600660003373ffffffffffffffffffffffffffffffffffffffff1673ffffffffffffffffffffffffffffffffffffffff16815260200190815260200160002060070160000181905550565b8280546118ba90612313565b90600052602060002090601f0160209004810192826118dc5760008555611923565b82601f106118f557805160ff1916838001178555611923565b82800160010185558215611923579182015b82811115611922578251825591602001919060010190611907565b5b5090506119309190611934565b5090565b5b8082111561194d576000816000905550600101611935565b5090565b6000604051905090565b600080fd5b600080fd5b6003811061197257600080fd5b50565b60008135905061198481611965565b92915050565b6000602082840312156119a05761199f61195b565b5b60006119ae84828501611975565b91505092915050565b600060ff82169050919050565b6119cd816119b7565b82525050565b60006020820190506119e860008301846119c4565b92915050565b600073ffffffffffffffffffffffffffffffffffffffff82169050919050565b6000611a19826119ee565b9050919050565b611a2981611a0e565b8114611a3457600080fd5b50565b600081359050611a4681611a20565b92915050565b600060208284031215611a6257611a6161195b565b5b6000611a7084828501611a37565b91505092915050565b611a8281611a0e565b82525050565b60008115159050919050565b611a9d81611a88565b82525050565b6000819050919050565b611ab681611aa3565b82525050565b606082016000820151611ad26000850182611aad565b506020820151611ae56020850182611aad565b506040820151611af86040850182611aad565b50505050565b606082016000820151611b146000850182611aad565b506020820151611b276020850182611aad565b506040820151611b3a6040850182611aad565b50505050565b606082016000820151611b566000850182611aad565b506020820151611b696020850182611aad565b506040820151611b7c6040850182611aad565b50505050565b600061016082019050611b986000830188611a79565b611ba56020830187611a94565b611bb26040830186611abc565b611bbf60a0830185611afe565b611bcd610100830184611b40565b9695505050505050565b611be0816119b7565b8114611beb57600080fd5b50565b600081359050611bfd81611bd7565b92915050565b600080600060608486031215611c1c57611c1b61195b565b5b6000611c2a86828701611bee565b9350506020611c3b86828701611bee565b9250506040611c4c86828701611bee565b9150509250925092565b611c5f81611aa3565b82525050565b6000602082019050611c7a6000830184611c56565b92915050565b600081519050919050565b600082825260208201905092915050565b60005b83811015611cba578082015181840152602081019050611c9f565b83811115611cc9576000848401525b50505050565b6000601f19601f8301169050919050565b6000611ceb82611c80565b611cf58185611c8b565b9350611d05818560208601611c9c565b611d0e81611ccf565b840191505092915050565b60006080820190508181036000830152611d338187611ce0565b9050611d426020830186611a79565b611d4f60408301856119c4565b611d5c6060830184611a94565b95945050505050565b600080fd5b600080fd5b7f4e487b7100000000000000000000000000000000000000000000000000000000600052604160045260246000fd5b611da782611ccf565b810181811067ffffffffffffffff82111715611dc657611dc5611d6f565b5b80604052505050565b6000611dd9611951565b9050611de58282611d9e565b919050565b600067ffffffffffffffff821115611e0557611e04611d6f565b5b611e0e82611ccf565b9050602081019050919050565b82818337600083830152505050565b6000611e3d611e3884611dea565b611dcf565b905082815260208101848484011115611e5957611e58611d6a565b5b611e64848285611e1b565b509392505050565b600082601f830112611e8157611e80611d65565b5b8135611e91848260208601611e2a565b91505092915050565b600080600060608486031215611eb357611eb261195b565b5b600084013567ffffffffffffffff811115611ed157611ed0611960565b5b611edd86828701611e6c565b9350506020611eee86828701611a37565b9250506040611eff86828701611bee565b9150509250925092565b6000602082019050611f1e6000830184611a79565b92915050565b611f2d81611aa3565b8114611f3857600080fd5b50565b600081359050611f4a81611f24565b92915050565b600080600060608486031215611f6957611f6861195b565b5b6000611f7786828701611f3b565b9350506020611f8886828701611f3b565b9250506040611f9986828701611f3b565b9150509250925092565b600060208284031215611fb957611fb861195b565b5b6000611fc784828501611f3b565b91505092915050565b7f526174696f6e56697472616e4b656e6472613a206e6f7420726567697374657260008201527f6564000000000000000000000000000000000000000000000000000000000000602082015250565b600061202c602283611c8b565b915061203782611fd0565b604082019050919050565b6000602082019050818103600083015261205b8161201f565b9050919050565b7f526174696f6e56697472616e4b656e6472613a2070726f76696465205265717560008201527f6972656420616d6f756e74000000000000000000000000000000000000000000602082015250565b60006120be602b83611c8b565b91506120c982612062565b604082019050919050565b600060208201905081810360008301526120ed816120b1565b9050919050565b7f4e487b7100000000000000000000000000000000000000000000000000000000600052602160045260246000fd5b7f70756c7365730000000000000000000000000000000000000000000000000000600082015250565b6000612159600683611c8b565b915061216482612123565b602082019050919050565b60006060820190506121846000830185611a79565b6121916020830184611a94565b81810360408301526121a28161214c565b90509392505050565b7f7269636500000000000000000000000000000000000000000000000000000000600082015250565b60006121e1600483611c8b565b91506121ec826121ab565b602082019050919050565b600060608201905061220c6000830185611a79565b6122196020830184611a94565b818103604083015261222a816121d4565b90509392505050565b7f7768656174000000000000000000000000000000000000000000000000000000600082015250565b6000612269600583611c8b565b915061227482612233565b602082019050919050565b60006060820190506122946000830185611a79565b6122a16020830184611a94565b81810360408301526122b28161225c565b90509392505050565b60006040820190506122d06000830185611a79565b6122dd6020830184611a94565b9392505050565b7f4e487b7100000000000000000000000000000000000000000000000000000000600052602260045260246000fd5b6000600282049050600182168061232b57607f821691505b60208210810361233e5761233d6122e4565b5b50919050565b7f526174696f6e56697472616e4b656e6472613a206e6f7420526567697374657260008201527f6564206368617269747900000000000000000000000000000000000000000000602082015250565b60006123a0602a83611c8b565b91506123ab82612344565b604082019050919050565b600060208201905081810360008301526123cf81612393565b9050919050565b7f4e487b7100000000000000000000000000000000000000000000000000000000600052601160045260246000fd5b600061241082611aa3565b915061241b83611aa3565b9250817fffffffffffffffffffffffffffffffffffffffffffffffffffffffffffffffff0483118215151615612454576124536123d6565b5b828202905092915050565b7f4e487b7100000000000000000000000000000000000000000000000000000000600052601260045260246000fd5b600061249982611aa3565b91506124a483611aa3565b9250826124b4576124b361245f565b5b828204905092915050565b60006124ca82611aa3565b91506124d583611aa3565b9250827fffffffffffffffffffffffffffffffffffffffffffffffffffffffffffffffff0382111561250a576125096123d6565b5b828201905092915050565b7f526174696f6e56697472616e4b656e6472613a20616c726561647920696e616360008201527f7469766520636861726974790000000000000000000000000000000000000000602082015250565b6000612571602c83611c8b565b915061257c82612515565b604082019050919050565b600060208201905081810360008301526125a081612564565b9050919050565b7f526174696f6e56697472616e4b656e6472613a206561726c792070756c73657360008201527f2077697468647261772072657175657374206973737565000000000000000000602082015250565b6000612603603783611c8b565b915061260e826125a7565b604082019050919050565b60006020820190508181036000830152612632816125f6565b9050919050565b7f526174696f6e56697472616e4b656e6472613a20696e73756666696369656e7460008201527f2070756c73657320000000000000000000000000000000000000000000000000602082015250565b6000612695602883611c8b565b91506126a082612639565b604082019050919050565b600060208201905081810360008301526126c481612688565b9050919050565b60006126d682611aa3565b91506126e183611aa3565b9250828210156126f4576126f36123d6565b5b828203905092915050565b7f526174696f6e56697472616e4b656e6472613a206561726c792072696365207760008201527f6974686472617720726571756573742069737375650000000000000000000000602082015250565b600061275b603583611c8b565b9150612766826126ff565b604082019050919050565b6000602082019050818103600083015261278a8161274e565b9050919050565b7f526174696f6e56697472616e4b656e6472613a20696e73756666696369656e7460008201527f2072696365200000000000000000000000000000000000000000000000000000602082015250565b60006127ed602683611c8b565b91506127f882612791565b604082019050919050565b6000602082019050818103600083015261281c816127e0565b9050919050565b7f526174696f6e56697472616e4b656e6472613a206561726c792077686561742060008201527f7769746864726177207265717565737420697373756500000000000000000000602082015250565b600061287f603683611c8b565b915061288a82612823565b604082019050919050565b600060208201905081810360008301526128ae81612872565b9050919050565b7f526174696f6e56697472616e4b656e6472613a20696e73756666696369656e7460008201527f2077686561742000000000000000000000000000000000000000000000000000602082015250565b6000612911602783611c8b565b915061291c826128b5565b604082019050919050565b6000602082019050818103600083015261294081612904565b905091905056fea2646970667358221220a4ad88ed8b9a0eaaa49fe26b8641fd825da965a78ae77a1ef6970851114f237064736f6c634300080d0033",
  "immutableReferences": {},
  "source": "// SPDX-License-Identifier: UNLICENSED\npragma solidity ^0.8.4;\n\ncontract RationVitranKendra {    \n    address public owner;\n    uint public totalPulses=10000;\n    uint public totalRice=10000;\n    uint public totalWheat=10000;\n    uint8 public pulsesDistribute=5;\n    uint8 public riceDistribute=5;\n    uint8 public wheatDistribute=5;\n    uint public nextDueTimePeriod=2592000;// 30 days =2592000 sec.\n    struct PulsesStr {\n        uint256 time;\n        uint256 nextDue;\n        uint userPulses;\n    }\n\n    struct RiceStr {\n        uint256 time;\n        uint256 nextDue;\n        uint userRice;\n    }\n    \n    struct WheatStr {\n        uint256 time;\n        uint256 nextDue;\n        uint userWheat;\n    }\n\n    struct User{\n        address userAddress;\n        bool isActive; //status of user\n        PulsesStr pulsesInfo;\n        RiceStr riceInfo;\n        WheatStr wheatInfo;\n    }\n\n    struct Charity{\n        string charityName;\n        address charityAddress;\n        uint8 charityShare;\n        bool isActive;\n    }\n    \n    mapping(address => User) public userMap;\n    mapping(address => Charity) public charityMap;\n    enum rawItems{pulses,rice,wheat}\n    constructor() {\n        owner = msg.sender;\n    }\n    event registerUserEvent(address adsOfUser,bool isActive);\n    event withdrawEvent(address adsOfUser,bool hasTaken,string item);\n    event userRemovingEvent(address adsOfUser,bool isActive);\n   \n    function registerUser(address adsOfUser) public onlyOwner {\n        PulsesStr memory tempPulses = PulsesStr(0, 0,0);\n        RiceStr memory tempRice = RiceStr(0, 0,0);\n        WheatStr memory tempWheat = WheatStr(0, 0,0);\n        User memory tempUserStr = User(adsOfUser, true, tempPulses,tempRice,tempWheat);\n        userMap[adsOfUser] = tempUserStr;\n        emit registerUserEvent(adsOfUser,true);\n    }\n\n    function withDrawRation(rawItems item) public payable {\n        require(userMap[msg.sender].isActive, \"RationVitranKendra: not registered\");\n        require(msg.value>=10000,\"RationVitranKendra: provide Required amount\");\n        if(item==rawItems.pulses){\n            _withDrawPulses();\n            emit withdrawEvent(msg.sender,true,\"pulses\");\n\n        }else if(item==rawItems.rice){\n            _withDrawRice();\n            emit withdrawEvent(msg.sender,true,\"rice\");\n\n\n        }else if(item==rawItems.wheat){\n            _withDrawWheat();\n            emit withdrawEvent(msg.sender,true,\"wheat\");\n\n        }\n    }\n        \n\n    function _withDrawPulses() internal {\n         require(\n            block.timestamp > userMap[msg.sender].pulsesInfo.nextDue,\n            \"RationVitranKendra: early pulses withdraw request issue\"\n        );\n        require(totalPulses>=5,\"RationVitranKendra: insufficient pulses \");\n        userMap[msg.sender].pulsesInfo.userPulses+=pulsesDistribute;\n        totalPulses-=pulsesDistribute;\n        // 30 days in second=nextDueTimePeriod\n        userMap[msg.sender].pulsesInfo.nextDue = block.timestamp + nextDueTimePeriod;\n        userMap[msg.sender].pulsesInfo.time = block.timestamp;\n    }\n\n    function _withDrawRice() internal {\n         require(\n            block.timestamp > userMap[msg.sender].riceInfo.nextDue,\n            \"RationVitranKendra: early rice withdraw request issue\"\n        );\n        require(totalRice>=5,\"RationVitranKendra: insufficient rice \");\n        userMap[msg.sender].riceInfo.userRice+=riceDistribute;\n        totalRice-=riceDistribute;\n        // 30 days in second=nextDueTimePeriod\n        userMap[msg.sender].riceInfo.nextDue = block.timestamp + nextDueTimePeriod;\n        userMap[msg.sender].riceInfo.time = block.timestamp;\n    }\n\n    function _withDrawWheat() internal {\n         require(\n            block.timestamp > userMap[msg.sender].wheatInfo.nextDue,\n            \"RationVitranKendra: early wheat withdraw request issue\"\n        );\n        require(totalWheat>=5,\"RationVitranKendra: insufficient wheat \");\n        userMap[msg.sender].wheatInfo.userWheat+=wheatDistribute;\n        totalWheat-=wheatDistribute;\n        // 30 days in second=nextDueTimePeriod\n        userMap[msg.sender].wheatInfo.nextDue = block.timestamp + nextDueTimePeriod;\n        userMap[msg.sender].wheatInfo.time = block.timestamp;\n    }\n\n    function removeUser(address toRemoveUser) public onlyOwner {\n        userMap[toRemoveUser].isActive=false;\n        emit userRemovingEvent(toRemoveUser,false);\n       \n    }\n\n    function charityRegistration(string memory _charityName,address _charityAddress,uint8 _charityShare) public onlyOwner{\n        charityMap[_charityAddress].charityName=_charityName;\n        charityMap[_charityAddress].charityAddress=_charityAddress;\n        charityMap[_charityAddress].charityShare=_charityShare;\n        charityMap[_charityAddress].isActive=true;\n    }\n\n    function removeCharity(address toRemoveCharity) public onlyOwner{\n        require(charityMap[toRemoveCharity].isActive==true,\"RationVitranKendra: already inactive charity\");\n        charityMap[toRemoveCharity].isActive=false;\n\n    } \n\n    function withDrawFund() public {\n        require(charityMap[msg.sender].isActive==true,\"RationVitranKendra: not Registered charity\");\n        require(address(this).balance>0);\n        address payable charityAddress=payable(msg.sender);\n        charityAddress.transfer((address(this).balance*charityMap[msg.sender].charityShare)/100);\n    }\n\n    function refilling(uint _pulses,uint _rice,uint _wheat) public onlyOwner{\n        totalPulses+=_pulses;\n        totalRice+=_rice;\n        totalWheat+=_wheat;\n    }\n\n    function updateItemsQuantity(uint8 _pulsesDistribute,uint8 _riceDistribute,uint8 _wheatDistribute) public onlyOwner{\n        pulsesDistribute=_pulsesDistribute;\n        riceDistribute=_riceDistribute;\n        wheatDistribute=_wheatDistribute;\n    }\n\n    function getContractBal() public view returns(uint){\n        return address(this).balance;\n    }\n\n    function changeDistributionTime(uint newtime)public onlyOwner{\n        nextDueTimePeriod=newtime;\n    }\n    \n    modifier onlyOwner() {\n        require(owner == msg.sender);\n        _;\n    }\n\n}\n",
  "sourcePath": "/home/ubox19/Desktop/assignments/RationVitranKendra/contracts/RationVitranKendra.sol",
  "compiler": {
    "name": "solc",
    "version": "0.8.13+commit.abaa5c0e.Emscripten.clang"
  },
  "schemaVersion": "3.4.7",
  "updatedAt": "2022-04-22T14:09:18.035Z",
  "networkType": "ethereum",
  "devdoc": {
    "kind": "dev",
    "methods": {},
    "version": 1
  },
  "userdoc": {
    "kind": "user",
    "methods": {},
    "version": 1
  }
}